:020000040800F2
:1000000028E30120B1180008591600085B16000803
:100010005D1600085F160008611600080000000069
:10002000000000000000000000000000631600084F
:100030006516000800000000671600086916000831
:10004000CB180008CB180008CB180008CB18000804
:10005000CB180008CB180008B35C0008CB180008C8
:10006000CB180008CB180008CB180008CB180008E4
:10007000CB180008CB180008CB180008CB180008D4
:10008000CB180008CB180008CB180008CB180008C4
:10009000CB180008CB180008CB180008CB180008B4
:1000A000CB180008CB180008CB180008CB180008A4
:1000B00091440008CB1800083B450008CB18000805
:1000C000CB180008CB180008CB180008CB18000884
:1000D000CB180008493D00081D5A0008CB1800083D
:1000E000CB180008CB180008CB180008CB18000864
:1000F000CB180008CB180008CB180008CB18000854
:10010000CB180008CB180008CB180008CB18000843
:10011000CB180008CB180008CB180008CB18000833
:10012000CB180008CB180008CB180008CB18000823
:10013000CB180008CB180008CB180008CB18000813
:10014000CB180008CB180008CB180008CB18000803
:10015000CB180008CB180008CB180008653E000833
:10016000CB180008CB180008CB180008CB180008E3
:10017000CB180008CB180008CB180008CB180008D3
:10018000CB180008CB180008CB180008CB180008C3
:10019000CB180008CB180008CB180008CB180008B3
:1001A000CB180008CB180008CB18000800F002F8A4
:1001B00000F0B6F80AA090E8000C82448344AAF14B
:1001C0000107DA4501D100F0ABF8AFF2090EBAE849
:1001D0000F0013F0010F18BFFB1A43F0010318477B
:1001E00000F7000020F7000010F8013B0A4413F06C
:1001F000030408BF10F8014B1D1108BF10F8015B84
:10020000641E05D010F8016B641E01F8016BF9D172
:10021000002D15D010F8014B03F00C030C2BA1EBB3
:1002200004040ABF10F8013BA4EB8314A4EB0324DD
:1002300005F1010314F8016B5B1E01F8016BF9D5A0
:10024000914238BF10F8013BD1D3704700230024FE
:1002500000250026103A28BF78C1FBD8520728BFD6
:1002600030C148BF0B6070476E290AF05482702974
:1002700009F0218766290EF0EE8165290EF0EB81E9
:1002800067290EF0E88161290EF0E78103681B0AF7
:1002900028BF41F08001692909F09286642909F09C
:1002A0008F86752909F08C866F290AF0398578299F
:1002B00009F0ED86E9290AF0D384E4290AF0D08414
:1002C000F5290AF0CD84EF290AF03685F82909F0DE
:1002D000EC860368DB0928BF41F0800163290AF03E
:1002E000DB8773290AF0E087E3290AF0EB87F3291B
:1002F0000AF0F087002070471FB50EF0A2F90AF04F
:10030000B1FD0400002000210DF0E4FA401C606003
:10031000002000210DF0F4FAE0601FBD10B510BD03
:100320000BF0DAF81146FFF7E7FF00F082FD0BF063
:1003300059FB03B4FFF7F2FF03BC03F085FC000098
:1003400010B5A82003F0FEFB4FF4A06001F0D0FA36
:1003500005F03EFA03F0CAFE04F06AFF42F2CF0154
:1003600041F2873004F0BDF8FE480168FE48884736
:1003700006F01EFC00214FF4003002F011FA0021BB
:10038000FA4803F0A4FA10BD1CB5012140F2F710A1
:1003900002F0BFF94FF6FF70009000208DF80700C3
:1003A00003208DF8040000208DF805008DF806006C
:1003B0006946EF4801F04CFE6946EE4801F048FE00
:1003C0006946ED4801F044FE6946EC4801F040FE04
:1003D0006946EB4801F03CFE6946EA4801F038FE08
:1003E0006946E94801F034FE6946E84801F030FE0C
:1003F0006946E74801F02CFE002140F2F71002F0B8
:1004000088F91CBD00B585B000220221122004F03D
:10041000A3FE01220221242004F09EFE9FEDDD0BAD
:1004200053EC102BDDA1684609F070FD6A460221ED
:100430003C2004F076FE0B220221602004F08CFEAA
:1004400002220521122004F087FE0122052124202A
:1004500004F082FE9FEDCF0B53EC102BCFA168462A
:1004600009F054FD6A4605213C2004F05AFECDA255
:100470000521602004F055FE05B000BD30B52DED1E
:10048000068B89B004460D46002008900790206036
:10049000286000220221122004F05EFE01220221C7
:1004A000242004F059FE06AA07A908A803F093FF28
:1004B00020680899884201DA08982060286807991E
:1004C000884201DA0798286008980DF0ECFC41ECAE
:1004D0001A0B9FEDB50B53EC102B0DF021FB41ECEB
:1004E000190B9FEDB30B53EC102B0DF04FFF41ECAC
:1004F000180B53EC182BA9A101A809F007FD01AABC
:1005000002213C2004F00DFE0B220221602004F0A9
:1005100023FE02220521122004F01EFE01220521E5
:10052000242004F019FE07980DF0BDFC41EC190BD6
:100530009FED9D0B53EC102B0DF0F2FA41EC180BD4
:1005400053EC182B95A101A809F0E0FC01AA0521A4
:100550003C2004F0E6FD93A20521602004F0E1FDBB
:1005600009B0BDEC068B30BD30B52DED048B83B0EA
:100570000446002503F09EFD07220221122004F00C
:10058000EBFD01220221242004F0E6FDB02202212D
:10059000E82004F048F8B0EE409AF0EE609A51EC92
:1005A000190B0DF0CFF908EE100A18EE100A0DF035
:1005B000D7FF41EC190B53EC192B7FA1684609F0CA
:1005C000A5FC9FED7F0AB4EEC08AF1EE10FA15DDAE
:1005D0009FED7C0AB4EEC08AF1EE10FA0ED200BF95
:1005E0000AE079480068C0437849C1F890020120C8
:1005F00003F00AFB681CC5B2C82DF2DB6A46022173
:10060000362004F08EFD0C220521122004F0A4FDFA
:100610000D220521242004F09FFD04F0F3F9B0EE33
:10062000409AF0EE609A51EC190B0DF08BF92060B6
:1006300094ED000A10EE101A08460DF091FF41ECFF
:10064000190B53EC192B62A1684609F05FFC6A464E
:100650000521362004F065FD03B0BDEC048B30BDF0
:1006600030B52DED068B83B0044600254FF4FA70AB
:1006700003F0CAFA03220221122004F06DFD0422C5
:100680000221242004F068FD05220221362004F016
:1006900063FD06220221482004F05EFD00BF1CE03D
:1006A000B0220221E82003F0BEFFB0EE409AF0EE47
:1006B000609A94ED000A10EE101A08460DF050FFF3
:1006C00041EC1A0B53EC192B0DF06EF941EC180BA1
:1006D0000DF038F92060681CC5B2322DE0DB94EDD6
:1006E000000ADFED3E0A80EE201A84ED001A94ED38
:1006F000000A10EE101A08460DF032FF41EC180BFC
:1007000053EC182B2CA1684609F000FC6A46052121
:10071000242004F006FD03B0BDEC068B30BD30B5DF
:100720002DED028B87B04FF4965003F00AFC42F295
:10073000CF01632003F07EFE00214FF0804002F0E5
:10074000BBFA25220021242004F006FD27220021E7
:10075000362004F001FD05F050F90121492005F093
:1007600080F83DE0A4F10008C0F10008004400401A
:10077000000002400004024000080240000C024059
:10078000001002400014024000180240001C024009
:1007900000200240000000000000000025342E313F
:1007A000660000002500000000000000000024405A
:1007B0000000000000001A4025342E31666D6D00E7
:1007C0000080BB4400C0C14490024142000041424D
:1007D00025342E31666C7578000000000000484218
:1007E00005F05EF84FF47A7003F00EFA04A805F0F5
:1007F00027F99DED040ADFEDFE0A80EE201A11EEC6
:10080000104A20460DF0ACFE41EC180B53EC182BAF
:10081000F8A101A809F07AFB01AA0221122004F034
:1008200080FC05F0EAF80121522005F01AF805F0E5
:1008300037F84FF47A7003F0E7F905A805F000F9EE
:100840009DED050ADFEDEA0A80EE201A11EE104A4E
:1008500020460DF085FE41EC180B53EC182BE8A157
:1008600001A809F053FB01AA0421122004F059FC4D
:1008700005F0C3F801215B2004F0F3FF05F010F848
:100880004FF47A7003F0C0F906A805F0D9F89DED91
:10089000060ADFEDD70A80EE201A11EE104A204634
:1008A0000DF05EFE41EC180B53EC182BD7A101A8FC
:1008B00009F02CFB01AA0621122004F032FC04A945
:1008C000D548006805F055FBD348006805F002FDE7
:1008D0000546D2480078401CD0490870D0480168CD
:1008E000D0488847CD4909784FF4480202EBC1212E
:1008F000481CCB49CB4ACB6829469847C748017862
:10090000022006F083F907B0BDEC028B30BD30B594
:100910002DED028B87B04FF4965003F012FB42F29C
:10092000CF01632003F086FD00214FF0804002F0EC
:10093000C3F925220021242004F00EFC26220021E8
:10094000362004F009FC05F058F80121482004F095
:1009500088FF04F0A5FF4FF47A7003F055F904A85E
:1009600005F06EF89DED040ADFEDA10A80EE201A75
:1009700011EE104A20460DF0F3FD41EC180B53EC3C
:10098000182BA9A101A809F0C1FA01AA022112207D
:1009900004F0C7FB05F031F80121512004F061FF9C
:1009A00004F07EFF4FF47A7003F02EF905A805F0ED
:1009B00047F89DED050ADFED8E0A80EE201A11EE54
:1009C000104A20460DF0CCFD41EC180B53EC182BCF
:1009D00098A101A809F09AFA01AA0421122004F0B2
:1009E000A0FB05F00AF801215A2004F03AFF04F0B8
:1009F00057FF4FF47A7003F007F906A805F020F8C6
:100A00009DED060ADFED7A0A80EE201A11EE104AFB
:100A100020460DF0A5FD41EC180B53EC182B88A1D6
:100A200001A809F073FA01AA0621122004F079FB4B
:100A300004A97948006805F089FA7748006805F04C
:100A400049FC054675480078401C744908700978CF
:100A50004FF4480202EBC121481C7149714ACB682E
:100A6000294698476D480178022006F0CFF807B074
:100A7000BDEC028B30BD10B503F01CFB002409E077
:100A800072480068C0437249C1F89002012003F027
:100A9000BBF8641CB4F5FA7FF2DB04F0A0FA17226D
:100AA0000321242004F058FB18220321362004F0EF
:100AB00053FB19220321482004F04EFB1A22032184
:100AC0005A2004F049FB4FF4FA7003F09DF804F04B
:100AD00086FA10BD38B5002405F0ACF90446322C76
:100AE00027D00DDC142C2FD005DCB4B3052C36D068
:100AF0000A2C3ED132E01E2C25D0282C39D121E001
:100B0000502C0BD004DC3C2C12D0462C31D10EE002
:100B10005A2C02D0642C2CD100BF00BF4D480123B9
:100B20007D22002100906E2004F047FB21E000BFF1
:100B300000BF494801237D22002100906E2004F06F
:100B40003CFB16E000BF00BF444801237D2200218A
:100B500000906E2004F031FB0BE001E000BF00BF0D
:100B60003F4801237D22002100906E2004F025FBE8
:100B700000BF00BF204638BD10B52D220321122032
:100B800004F0EAFA2E220321242004F0E5FA1322CD
:100B90000321362004F0E0FA14220321482004F057
:100BA000DBFA2A2203215A2004F0D6FA2DA20321CF
:100BB0006C2004F0B6FA10BD10B52D2203211220CE
:100BC00004F0CAFA2E220321242004F0C5FA2B22B5
:100BD0000321362004F0C0FA2C220321482004F01F
:100BE000BBFA212203215A2004F019FA10BD00009B
:100BF0000000C842413A2025342E336641000000EF
:100C0000423A2025342E336641000000433A202525
:100C1000342E3366410000003C00002040000020DC
:100C2000A4F10008C0F10008413A2025342E3366B3
:100C300056000000423A2025342E3366560000004C
:100C4000433A2025342E336656000000900241427C
:100C5000000041420F0000201E0000202D00002057
:100C6000000000202E2E000010B52F22032112209C
:100C700004F072FA30220321242004F06DFA1322CA
:100C80000321362004F068FA14220321482004F0DE
:100C900063FA2D2203215A2004F05EFA2E2203214A
:100CA0006C2004F059FA10BD10B504F098F90E222A
:100CB0000121002004F050FA0F220121122004F03B
:100CC0004BFA10220121242004F046FA11220121BE
:100CD000362004F041FA12220121482004F03CFAA7
:100CE000132201215A2004F037FA142201216C202A
:100CF00004F032FA31220421242004F090F93A223F
:100D00000421362004F08BF915220421482004F038
:100D100023FA32220621242004F081F93A22062106
:100D2000362004F07CF916220621482004F014FA3B
:100D300010BD10B504F053F931220121002004F058
:100D40000BFA32220121122004F006FA2D22012191
:100D5000242004F001FA2E220121362004F0FCF9AF
:100D600013220121482004F0F7F9142201215A200E
:100D700004F0F2F93F2201216C2004F050F93122F5
:100D80000421242004F04BF93A220421362004F0F7
:100D900046F915220421482004F0DEF9322206210A
:100DA000242004F03CF93A220621362004F037F9D9
:100DB00016220621482004F0CFF910BD10B504F02A
:100DC0000EF91B220221122004F0C6F91C22022176
:100DD000242004F0C1F91D220221362004F0BCF9C0
:100DE0001E220221482004F0B7F91F2202215A20B6
:100DF00004F0B2F9202202216C2004F0ADF9212286
:100E00000421242004F0A8F922220421362004F031
:100E1000A3F923220421482004F09EF9242204216E
:100E20005A2004F099F9FEA20721002004F079F974
:100E300010BD2DED068BADF5036D002400250020BF
:100E4000CDF82C08CDF828089FEDFA0A0DF50060C2
:100E500080ED090A9FEDF70A80ED080A9FEDF50A7B
:100E600080ED070AA14600BFFFF78EFAA82002F026
:100E700069FE4FF4A06000F03BFD04F0D9F904F0E6
:100E8000AEF804F0A5FC03F031F94FF4965003F0EE
:100E900058F842F2CF01632003F0CCFA00214FF062
:100EA000804001F009FF00214FF4003001F078FC90
:100EB0000021E14802F00BFDE0480168E048884766
:100EC00005F076FE022003F020FF002003F01DFF56
:100ED00005F01AF8DB490860022005F06DFE0746B0
:100EE0004FF4480101EBC721481CD449D44A8B6810
:100EF00001A998475FB3FFF7D7FEA04623E0002083
:100F000003F01BF90446012C0AD101A805F0F9F9F8
:100F1000CC490860CC48077000244FF0010915E067
:100F2000022C0BD1C548C64982694FF4480090474E
:100F30000021022005F06AFE002407E000BF08F14E
:100F4000010000F0FF08B8F1C80FD8DB00BFB9F10D
:100F5000000F0AD1B948BA4982694FF44800904756
:100F60000021022005F052FE002442F2CF0141F29E
:100F7000873003F0B6FAFFF721FF5CE3002C39D18C
:100F8000FFF71CFF0020B14908600021B04801F0C4
:100F900093FE0021AE4801F04FFE0121AC4801F064
:100FA0008BFE25E0002003F0C8F804466D1CB5F563
:100FB000FA7F09D104F03EFF0646052E03D1FFF764
:100FC0005AFDFFF7FBFE002514B1082C00D010E0FD
:100FD000A0480068012808D104F0D8FDFFF7B0F957
:100FE00000209C490860002403E00A2002F00CFE67
:100FF000D8E720E3012C76D103F0F1FF0025002093
:1010000092490860FFF766FD064603F090F9FFF786
:10101000F9F900218E4801F04FFE00218C4801F0C3
:101020000BFE01218A4801F047FE83E06D1C64201D
:1010300095FBF0F100FB115020B90DF62C01081FB3
:10104000FFF71CFAB5F5FA7F07D1FFF743FD064617
:10105000052E01D1FFF70FFD0025002003F06DF8EC
:101060000446012C56D0ECB3082C53D076480078B7
:10107000401C754908700DF5006090ED0A0AB8EE45
:10108000C00AF2EE040A80EE201A11EE108A4046E1
:101090000DF066FA41EC1A0B9FED6F0B53EC102B21
:1010A0000DF074F941EC190B0CF04CFC08EE100A31
:1010B000B0EE480A6348006804F03AFF0DF500629C
:1010C00092ED0B0AB8EEC00AF2EE040A80EE201A86
:1010D000B0EE418AB0EE480A5A48006804F02BFF8F
:1010E000584801E016E027E0006805F0F3F8824672
:1010F000554909784FF4480202EBC121481C4F4979
:101100004F4ACB68514698474F480178022005F076
:101110007DFD10E04F480068012808D104F036FD3D
:10112000FFF70EF900204B490860012403E00A2074
:1011300002F06AFD7AE77EE2022C6FD103F04FFFE6
:1011400000250020414908600021414801F0B4FD1C
:1011500000213F4801F070FD03F020FA03F029FC64
:101160000DF62400FFF700FA0121394801F0A4FD33
:10117000FFF7B0FC064691E000BF6D1C1E2095FBFA
:10118000F0F100FB115018B90DF62400FFF7ECF94F
:10119000B5F5FA7F04D103F022FFFFF79BFC06466A
:1011A000B5F57A6F07D1FFF795FC0646052E01D1FC
:1011B000FFF761FC0025002002F0BFFF0446022C6F
:1011C00056D10021224801F077FD0021204801F08E
:1011D00033FD1D480078401C1B4908700DF62400A3
:1011E000FFF7C2F90DF5006090ED090A1548006897
:1011F00004F0A4FE1348006805F06CF8804612491C
:1012000009784FF4480202EBC121481C0B490C4AF3
:10121000CB68414698470C48017821E040E0000047
:10122000202A202A202A202A202A202A202A202A6E
:10123000000000000000000000440040A4F100088D
:10124000C0F100083C000020400000207C0000208D
:1012500000080040440000200000000000001A4088
:10126000022005F0D3FC0121F34801F025FD00BF69
:10127000022C03D014B1082C00D010E0EF48006815
:10128000012808D104F082FCFFF75AF80020EB494E
:101290000860022403E00A2002F0B6FC6CE7CAE111
:1012A000032C7CD100250020E54908600021E2489C
:1012B00001F002FD0021E04801F0BEFC03F06EF9F0
:1012C00003F08DFE1FED250A0DF5006080ED070A85
:1012D000FFF700FC06460DF61C00FFF7C1F90121DF
:1012E000D54801F0E9FC88E0002002F026FF044622
:1012F0006D1CB5F57A6F07D1FFF7ECFB0646052E9E
:1013000001D1FFF7B8FB0025032C60D10021CA48AA
:1013100001F0D2FC0021C84801F08EFCC9480078D9
:10132000401CC84908701FED3D0A0DF5006080EDB6
:10133000080A2030FFF794F90DF5006090ED080AD7
:10134000D0ED070A30EE600A10EE101A08460DF0D4
:1013500007F941EC180B53EC182BAFF6A4310DF63E
:10136000040008F0D3FD0DF604020521242003F04B
:10137000D8FE0DF50062D2ED080A92ED071A70EE64
:10138000C10AB0EE600AB048006804F0DAFDAE4869
:10139000006804F09FFF8046AA49097800E02EE02B
:1013A0004FF4480202EBC121481CA849A84ACB6867
:1013B00041469847A3480178022005F027FCFFF733
:1013C00089FB064601219C4801F076FC00BF032CF6
:1013D00003D014B1082C00D010E098480068012810
:1013E00008D104F0D3FBFEF7ABFF0020934908605F
:1013F000032403E00A2002F007FC75E71BE1042C3C
:101400003ED100208E49086003F0E9FD00218A48A2
:1014100001F052FC0021884801F00EFCFFF75AFB56
:101420000646FFF774FA0121834801F045FC25E0E8
:10143000002002F082FE04466D1CB5F57A6F07D1DC
:10144000FFF748FB0646052E01D1FFF714FB0025E8
:10145000042C03D014B1082C00D010E077480068A9
:10146000012808D104F092FBFEF76AFF00207349BF
:101470000860042403E00A2002F0C6FBD8E7DAE0A3
:10148000052C3ED100206E49086003F0A8FD002124
:10149000694801F011FC0021674801F0CDFBFFF71E
:1014A00019FB0646FFF73BF90121634801F004FCF4
:1014B00025E0002002F041FE04466D1CB5F57A6F70
:1014C00007D1FFF707FB0646052E01D1FFF7D3FA38
:1014D0000025052C03D014B1082C00D010E057488B
:1014E0000068012808D104F051FBFEF729FF002015
:1014F00052490860052403E00A2002F085FBD8E782
:1015000099E0072C11D100214B4801F0D5FB0020B8
:101510004B49086004F03AFB04F0AAFBFEF710FF09
:10152000002046490860002485E0062C76D103F0AF
:1015300056FDFFF7CFFA064600204149086000211A
:101540003D4801F0B9FB00213B4801F075FB02204A
:1015500005F032FB8246BAF1000F07D1FFF784FB9A
:101560004FF47A7002F050FB002463E0FFF7E1FBD8
:101570004FF0000859E0002002F0DFFD0446022C85
:1015800001D1002454E0012C49D14FF4E13002F0A4
:1015900018FC03F024FDFFF7EFFA0DF5016004F0ED
:1015A000A0F80DF5016004F019F983465946264864
:1015B000006804F0C9FC2448006804F08BFE009029
:1015C000009802F08CFC0021022005F01FFB1E4851
:1015D000006804F093FC1D481D4982694FF44800DF
:1015E00090474FF4FA7002F00FFB03F0F8FCFFF79E
:1015F00071FA0646FFF7E0FA0021202001F0E1F839
:101600000021144802F063F901210B4801F054FB5A
:101610004FF47A7002F0F8FA002409E00BE000BF02
:101620000A2002F0F1FA08F10108B8F5967FA2DB72
:1016300000BF002400BFA1E40008004044000020D7
:101640007C000020400000203C000020A4F10008A5
:10165000C0F10008001401407047704770477047A0
:101660007047704770477047704700000CB5002006
:10167000019000908348006840F480308149086000
:1016800000BF8048006800F4003000900198401CC2
:101690000190009818B90198B0F5A04FF1D17948A0
:1016A000006800F4003010B10120009001E000203B
:1016B00000900098012860D172484030006840F0E6
:1016C00080507049403108606F48006840F44040E5
:1016D0006D4908606B48083000686A490831086045
:1016E0000846006840F4004008600846006840F47E
:1016F000A05008606548091F0860081F006840F096
:101700008070091F086000BF5E48006800F000702C
:101710000028F9D05C48006840F480305A490860DD
:1017200000BF5948406800F480300028F9D056487E
:10173000006840F400305449086000BF52484068D7
:1017400000F400300028F9D040F2057050490860DC
:101750004C480830006820F003004A49083108600E
:101760000846006840F00200086000BF45480830A5
:10177000006800F00C000828F8D10CBD10B54548F1
:10178000006840F47000434908603E48006840F03B
:1017900001003C49086000203A4908310860394896
:1017A00000683D490840374908603C48091D086009
:1017B000081F006820F48020091F086000203149BC
:1017C0000C310860FFF752FF4FF00060314980395B
:1017D000086010BD70B50020002202230024022101
:1017E000284D08352D6805F00C0020B1042806D0DE
:1017F000082834D107E02A4D2A4E356033E02A4DBF
:10180000284E35602FE01F4D2D1D2D68C5F38054E7
:101810001C4D2D1D2D6805F03F0154B1224DB5FB27
:10182000F1F5184E361D3668C6F3881605FB06F22C
:1018300009E01B4DB5FBF1F5124E361D3668C6F3B7
:10184000881605FB06F20F4D2D1D2D68C5F30145C9
:101850006D1C6B00B2FBF3F5124E356003E0104DCA
:10186000104E356000BF00BF064D08352D68C5F32A
:1018700003150E4E705D0B4D2D68C540094E356049
:1018800070BD00000038024000700040195440074D
:10189000003C024088ED00E0FFFFF6FE103000241F
:1018A0000024F4004800002040787D014C00002016
:1018B0000948804709480047FEE7FEE7FEE7FEE7E4
:1018C000FEE7FEE7FEE7FEE7FEE7FEE70448054920
:1018D000054A064B704700007D170008AD0100085F
:1018E00028D3012028E3012028DB012028DB012068
:1018F00032490143324A1160704770B5002100231C
:101900000F22C4781CB32E4C246804F4E064C4F5A0
:10191000E064C4F30721C1F10404E3B20A4144784E
:101920009C40E1B28478144021430C07210E254CE1
:1019300005786155047804F01F050124AC40057852
:101940006D11AD0005F1E025C5F8004109E004780E
:1019500004F01F050124AC401B4D0678761145F8B4
:10196000264070BD194A0A400243154B1B1F1A60DE
:10197000704739B1124A121D12680243104B1B1DE9
:101980001A6006E00E4A121D126882430C4B1B1DA2
:101990001A607047042808D14FF0E021096941F02E
:1019A00004014FF0E022116107E04FF0E0210969E6
:1019B00021F004014FF0E022116170470000FA05A8
:1019C0000CED00E000E400E080E100E080FFFF1F9C
:1019D00010B50121080200F049FF00214FF480708A
:1019E00000F044FF10BD30B50246002000235068CF
:1019F000F84C20400D790C6844EA052420435060DF
:101A00009068F54C2040D1E903542C438D682C4359
:101A10004D7944EA450420439060D06A20F4700078
:101A20000C7D641EE4B2234340EA0350D06230BD13
:101A300000210160017141718160C160016101217A
:101A4000017570470021E54A1168E54A1140D0E967
:101A500000231A4383681A43C3681A431143E14AB7
:101A6000C2F8041370470021016041608160C160C9
:101A7000704721B1826842F00102826003E082680F
:101A800022F00102826070470A4600214168D64B6D
:101A900019401143416070474162826270470A46B3
:101AA0000021416821F01F0111434160704738B1A6
:101AB000CA49096841F40001CA4AC2F8041306E0A1
:101AC000C649096821F40001C64AC2F804137047E8
:101AD00038B1C249096841F48001C24AC2F804130E
:101AE00006E0BE49096821F48001BE4AC2F8041329
:101AF0007047F0B504460D4600200021092D11DD88
:101B0000E068A5F10A0606EB4607072606FA07F184
:101B10008843A5F10A0606EB460603FA06F10843D8
:101B2000E0600CE0206905EB4507072606FA07F19F
:101B3000884305EB450603FA06F108432061072AAE
:101B40000FDA606B561E06EB86071F2606FA07F1B2
:101B50008843561E06EB860605FA06F108436063C5
:101B600022E00D2A0FDA206BD61F06EB86071F2610
:101B700006FA07F18843D61F06EB860605FA06F13A
:101B80000843206310E0E06AA2F10D0606EB860729
:101B90001F2606FA07F18843A2F10D0606EB86061A
:101BA00005FA06F10843E062F0BD816841F080412A
:101BB00081607047014600208A6802F080420AB1C5
:101BC000012000E00020704721B1826842F4806269
:101BD000826003E0826822F480628260704721B1F3
:101BE000826842F00202826003E0826822F0020210
:101BF0008260704710B50A4600210023416821F435
:101C00006041531E41EA4331416010BD21B1426839
:101C100042F40062426003E0426822F400624260E3
:101C200070470146C86C80B270476C48001D006860
:101C3000704721B1826842F48072826003E082685A
:101C400022F480728260704721B1826842F400728F
:101C5000826003E0826822F400728260704738B1CB
:101C60005E49096841F400515E4AC2F8041306E077
:101C70005A49096821F400515A4AC2F804137047BE
:101C8000F0B504461546002000220026092911DD82
:101C9000E068A1F10A0707EB470C072707FA0CF2E7
:101CA0009043A1F10A0707EB470703FA07F2104335
:101CB000E0600CE0206901EB410C072707FA0CF209
:101CC000904301EB410703FA07F210432061A06B38
:101CD000C0F30156EF1C06F1010CA7EB0C0707EB54
:101CE000870C1F2707FA0CF29043EF1C06F1010C3A
:101CF000A7EB0C0707EB870701FA07F21043A06375
:101D0000F0BD10B50A4600210023816B21F440117B
:101D1000531E41EA0351816310BD08B500230093AF
:101D20000090009B0B440093009B1A6008BD0A467C
:101D30000021816821F470211143816070470A46B7
:101D40000021816821F4401111438160704781684E
:101D500041F4800181607047014600208A6802F4E6
:101D600080020AB1012000E00020704721B14268E2
:101D700042F48062426003E0426822F48062426082
:101D8000704721B1426842F48052426003E04268E9
:101D900022F480524260704708B50246002000904D
:101DA000009201F12800009B184400900098006800
:101DB00080B208BD10B50B460021D9B2012404FA47
:101DC00001F11AB144680C43446002E044688C435A
:101DD000446010BDFFFEFFFCFDF7FFC0042301407F
:101DE000E030FCFF00200140FFFD3FFF02460020E5
:101DF00013680B400BB1012000E000207047CA437C
:101E00000260704770B502460020002300240B12C8
:101E1000556801268E4005EA060415681D4015B177
:101E20000CB1012000E0002070BD00220A12D34353
:101E300003607047002041490860091D0860091DC2
:101E40000860091D08603E483C491431086070472D
:101E500000213A498279002A3AD00A46126803687A
:101E60009A430B461A600A1D126803689A430B1DB9
:101E70001A60027911440A6803681A430A602F4AFB
:101E80000832126803689A432C4B08331A601A1DF3
:101E9000126803689A43294B0C331A604279102A5E
:101EA0000ED11A1F126803681A43244B08331A60B4
:101EB0001A1D126803681A43204B0C331A600DE098
:101EC0001E49427911440A6803681A430A6005E012
:101ED000027911440A6803689A430A607047002136
:101EE000016001710C21417100218171704713491A
:101EF000103109680143114A1032116070470146E0
:101F000000200E4A143212680A400AB1012000E093
:101F100000207047094914310860704701460020CD
:101F2000064A143212680A400AB1012000E000207B
:101F3000704702491431086070470000003C0140BE
:101F4000FFFF7F0010B504469848844208D1012164
:101F5000084600F047FC0021012000F043FC76E039
:101F60009348844208D10121022000F03BFC00216B
:101F7000022000F037FC6AE08E48844208D101213B
:101F8000042000F02FFC0021042000F02BFC5EE078
:101F90008948844208D10121082000F023FC002157
:101FA000082000F01FFC52E08448844208D101213F
:101FB000102000F017FC0021102000F013FC46E078
:101FC0007F48844208D10121202000F00BFC002131
:101FD000202000F007FC3AE07A48844208D1012131
:101FE000402000F0FFFB0021402000F0FBFB2EE032
:101FF0007548844208D10121802000F0F3FB0021C4
:10200000802000F0EFFB22E07048844208D10121DB
:10201000801500F0E7FB0021A01500F0E3FB16E0BF
:102020006B48844208D10121401500F0DBFB002100
:10203000601500F0D7FB0AE06648844207D1012111
:10204000001500F0CFFB0021201500F0CBFB10BDE8
:10205000F0B50A4600210023002400BF3DE0012521
:1020600005FA01F3156805EA03049C4234D10568BA
:102070004F000326BE40B543056015794E00B540BC
:102080000668354305601579012D02D01579022DBA
:1020900016D185684F000326BE40B543856055794B
:1020A0004E00B540866835438560456801268E4000
:1020B000B5434560456896798E40B6B23543456074
:1020C000C5684F000326BE40B543C560D5794E00B4
:1020D000B540C6683543C560491C1029BFD3F0BD63
:1020E0004FF6FF7101600021017141718171C17171
:1020F000704708B54FF480320092009A0A4300926C
:10210000009AC261C161009AC261C2690092C2694B
:10211000009208BD0246002013690B400BB101205C
:1021200000E0002070470146086980B2704702460F
:10213000002053690B400BB1012000E000207047E4
:102140000146486980B270470183704741837047F8
:102150000AB1018300E041837047416170474269E1
:102160004A4042617047F0B5002300244D07ED0E50
:1021700002FA05F3CE1000F1200555F826504E075F
:10218000F70E0F26BE40B543CF1000F1200646F8EB
:102190002750CE1000F1200555F8265045EA0304DB
:1021A000CE1000F1200545F82640F0BD00000240A9
:1021B0000004024000080240000C024000100240EF
:1021C0000014024000180240001C0240002002409F
:1021D000002402400028024010B50121080700F049
:1021E00034FB00214FF0805000F02FFB10BD574909
:1021F0000862704701460020554A106820F0E00050
:102200000843106070475149086170474F49A03139
:10221000086070474D49A4310860704701460020AE
:102220004B4A106820F4404008431060704747490B
:102230000864704745494864704730B144490968AB
:1022400041F44021424A116005E04149096821F406
:1022500040213F4A1160704718B101213B4AD162C9
:1022600002E00021394AD162704718B10121374A92
:10227000916202E00021354A916270473349486219
:10228000704710B502460020314B186840F60343F2
:10229000984310432E4B18602E4B1B6843F00403E9
:1022A0002C4C2360012901D130BF00E020BF294B15
:1022B0001B6823F00403274C236010BD10B50246B1
:1022C0000020234B186840F6034398431043204BEB
:1022D0001860204B1B6843F004031E4C2360012947
:1022E00001D130BF00E020BF1A4B1B6823F004036C
:1022F000184C236010BD1648006840F002001449D5
:1023000008601448006840F004001249086000BFEB
:1023100000BF30BF7047014600200D4A52680A4096
:102320000AB1012000E000207047B0F5402F06D030
:102330000749096841EA8001054A116005E004493E
:10234000496841F44021024A5160704700000E4242
:102350000070004010ED00E0F648006840F0010019
:10236000F44908600020F34908310860F14800682A
:10237000F1490840EF490860F048091D0860F0483D
:10238000EC4984310860ED481038091D0860E948BF
:10239000006820F48020E74908600020E5490C31FE
:1023A0000860E4498C31086070470021E14A921CC2
:1023B000117011460870704710B5014600220023C5
:1023C00000204A11012A02D1DA4C236808E0022ACF
:1023D00003D1D84C7034236802E0D64C743423689F
:1023E00001F01F02012494401C400CB1012000E0C8
:1023F000002010BD38B5002000900024002500BF4B
:102400003120FFF7D9FF05460098401C0090009846
:10241000B0F5A04F01D0002DF2D03120FFF7CCFF56
:1024200008B1012400E00024204638BD0146002008
:10243000C04A106820F0F80040EAC1001060704700
:10244000C049086070470021BA4A7032117011709B
:10245000012802D004280AD104E00121B54A7032D3
:10246000117005E00521B34A7032117000E000BF21
:1024700000BF7047B4490860704770B5049C41EADA
:1024800082150126C6EB530645EA0645054345EA93
:102490000465A84E361D356070BDAA4908667047B0
:1024A00010B5830143EA016343EA0273A14C84340B
:1024B000236010BDA3498866704710B5830143EAC5
:1024C000016343EA02739B4C8834236010BD9D492D
:1024D000086770479B49C864704702460020954BC7
:1024E0000833186820F0EC6042EA01031843914B6E
:1024F000083318607047024600208E4B0833186876
:1025000020F0784042EA010318438A4B08331860F0
:10251000704701460020874A0832106820F0030007
:1025200008431060704783480830006800F00C00D2
:102530007047014600207F4A0832106820F0F00002
:10254000084310607047014600207A4A083210683C
:1025500020F4E05008431060704701460020754A9F
:102560000832106820F4604040EAC10010607047F3
:10257000F0B50021002200240225002602236D4F21
:1025800008373F6807F00C0121B1042905D008295C
:1025900037D105E06D4F076036E06D4F076033E0DF
:1025A000644F3F1D3F68C7F38056624F3F1D3F6831
:1025B00007F03F036EB1664FB7FBF3F7DFF874C166
:1025C0000CF1040CDCF800C0CCF3881C07FB0CF405
:1025D0000CE05E4FB7FBF3F7DFF858C10CF1040CC9
:1025E000DCF800C0CCF3881C07FB0CF4514F3F1DF6
:1025F0003F68C7F301477F1C7D00B4FBF5F7076018
:1026000002E0524F076000BF00BF4A4F08373F68E3
:1026100007F0F00109094F4F7A5C0768D74047601F
:10262000444F08373F6807F4E051890A494F7A5C04
:102630004768D74087603F4F08373F6807F46041DD
:10264000490B444F7A5C4768D740C760F0BD002112
:1026500000F44072B2F5407F0AD1364A0832116860
:1026600021F4F8113C4A02401143324A0832116009
:10267000304A70321268C0F30B031A432D4B70338B
:102680001A60704730494439086070472E49403914
:102690000860704731490860704701460020254AAC
:1026A0008C32106820F01F004A1E1043214A8C32E1
:1026B00010607047014600201E4A8C32106820F4DA
:1026C000F8504A1E40EA02201A4A8C3210607047C5
:1026D00001460020174A8C32106820F4401008434D
:1026E0001060704701460020124A8C32106820F4B6
:1026F0004000084310607047014600200D4A8C32AC
:10270000106820F440300843106070471449086096
:10271000704739B1074A303212680243054B3033F3
:102720001A6006E0034A303212688243014B3033AC
:102730001A60704700380240FFFFF6EA10300024AC
:102740000030002000004742800E47420024F40081
:1027500040787D015C000020FFFCFF0F5C014742D8
:10276000E011474229B1934A12680243914B1A6023
:1027700004E0904A126882438E4B1A60704739B168
:102780008C4A121D126802438A4B1B1D1A6006E018
:10279000884A121D12688243864B1B1D1A607047BF
:1027A00039B1844A0C3212680243824B0C331A60EE
:1027B00006E0804A0C32126882437E4B0C331A606A
:1027C000704739B17B4A103212680243794B10339B
:1027D0001A6006E0774A103212688243754B103354
:1027E0001A60704739B1734A243A12680243714B38
:1027F000243B1A6006E06F4A243A126882436D4B0C
:10280000243B1A60704739B16A4A203A1268024381
:10281000684B203B1A6006E0664A203A1268824301
:10282000644B203B1A60704739B1624A1C3A126807
:102830000243604B1C3B1A6006E05E4A1C3A126879
:1028400082435C4B1C3B1A60704739B1594A143AB9
:1028500012680243574B143B1A6006E0554A143A7B
:1028600012688243534B143B1A60704739B1514A86
:10287000103A126802434F4B103B1A6006E04D4A73
:10288000103A126882434B4B103B1A60704739B1C3
:10289000484A1C3212680243464B1C331A6006E059
:1028A000444A1C3212688243424B1C331A60704700
:1028B00039B1404A2032126802433E4B20331A603D
:1028C00006E03C4A2032126882433A4B20331A60B9
:1028D000704739B1374A243212680243354B2433EA
:1028E0001A6006E0334A243212688243314B2433A3
:1028F0001A60704739B12F4A2C32126802432D4BAF
:102900002C331A6006E02B4A2C3212688243294B82
:102910002C331A60704739B1264A303212680243AC
:10292000244B30331A6006E0224A30321268824368
:10293000204B30331A607047012808D11D493C31C3
:10294000096841F008011B4A3C32116007E019494F
:102950003C31096821F00801164A3C321160704789
:1029600039B1144A273A12780243124B273B1A70A6
:1029700006E0104A273A127882430E4B273B1A7022
:1029800070470C484030006840F080700949403181
:102990000860704701460020064A283A12680A403B
:1029A0000AB1012000E00020704702492639087072
:1029B000704700003438024010B501218803FFF74A
:1029C00055FF00214FF48040FFF750FF10BD1C4918
:1029D000086070471B490862704730B500228B07BA
:1029E0001C0F0F2303FA04F2154B08338C1053F815
:1029F00024309343124C08348D1044F8253023467C
:102A00008C1053F824308C07240F00FA04F423436D
:102A10000B4C08348D1044F8253030BD0949DC31A9
:102A20000860704708490860704700200449203159
:102A3000096801F4807109B1012000E000207047AD
:102A400000380140000027420004274210B5044628
:102A5000FE48844208D101210846FFF707FF002104
:102A60000120FFF703FF9DE0B4F1804F08D1012161
:102A70000846FFF7EAFE00210120FFF7E6FE91E09D
:102A8000F348844208D101210220FFF7DEFE002135
:102A90000220FFF7DAFE85E0EE48844208D10121EA
:102AA0000420FFF7D2FE00210420FFF7CEFE79E0DC
:102AB000E948844208D101210820FFF7C6FE002121
:102AC0000820FFF7C2FE6DE0E448844208D10121EE
:102AD0001020FFF7BAFE00211020FFF7B6FE61E0DC
:102AE000DF48844208D101212020FFF7AEFE0021FB
:102AF0002020FFF7AAFE55E0DA48844208D10121E0
:102B00000220FFF7B3FE00210220FFF7AFFE49E0ED
:102B1000D548844209D101210804FFF7A7FE00210E
:102B20004FF48030FFF7A2FE3CE0D048844209D148
:102B300001214804FFF79AFE00214FF40030FFF70F
:102B400095FE2FE0CA48844209D101218804FFF78D
:102B50008DFE00214FF48020FFF788FE22E0C5485B
:102B6000844208D101214020FFF76FFE0021402060
:102B7000FFF76BFE16E0C048844208D10121802097
:102B8000FFF763FE00218020FFF75FFE0AE0BB48ED
:102B9000844207D101218015FFF757FE0021A015BF
:102BA000FFF753FE10BD00220288A84B98420ED0BA
:102BB000AC4B98420BD0B0F1804F08D0A44B984258
:102BC00005D0A44B984202D0A34B984204D14FF6B3
:102BD0008F731A404B881A43A04B984207D0A04BE2
:102BE000984204D04FF6FF431A400B891A430280E3
:102BF0004B68C3620B880385944B984202D0994B73
:102C0000984201D18B7A03860123838270474FF06B
:102C1000FF31416000210180018141808172704754
:102C20000185828270470A46002101884FF68F7322
:102C3000194011430180704741627047C16270477B
:102C40000146486A70470146088D704721B10288E5
:102C500042F00202028004E002884FF6FD731A403F
:102C60000280704721B1028842F00402028004E031
:102C700002884FF6FB731A400280704721B1028828
:102C800042F08002028004E002884FF67F731A400F
:102C90000280704702884FF6F7731A40028002885C
:102CA0000A430280704702884FF6FF431A400280B1
:102CB00002880A430280704721B1028842F0010273
:102CC000028004E002884FF6FE731A4002807047CB
:102CD00070B5002400220023058C4FF6FE763540A7
:102CE0000584028C8388048B4FF68F752C40B51EAB
:102CF0002C400D882C43751E2A408D892A434D880F
:102D00002A43524DA84202D0564DA84213D14FF645
:102D1000F7752A40CD892A434FF6FB752A408D88E6
:102D20002A434FF6FF652B404FF6FF552B400D8A87
:102D30002B434D8A2B43838004838D684563028433
:102D400070BD70B5002400220023058C4FF6EF768D
:102D500035400584028C8388048B48F6FF752C402F
:102D60004FF6FF452C400D884FF6FF7606EA052505
:102D70002C434FF6DF752A408D8906EA05152A4354
:102D80004D8806EA05152A43304DA84202D0354D3C
:102D9000A8421DD14FF67F752A40CD894FF6FF76A8
:102DA00006EA05152A434FF6BF752A408D8806EAC4
:102DB00005152A434FF6FF352B404FF2FF752B4088
:102DC0000D8A06EA85052B434D8A06EA85052B43C5
:102DD000838004838D688563028470BD70B5002490
:102DE00000220023058C4FF6FF6635400584028CD7
:102DF0008388848B4FF68F752C404FF6FC752C40E2
:102E00000D882C434FF6FF552A408D894FF6FF76EB
:102E100006EA05252A434D8806EA05252A430B4D77
:102E2000A84202D00F4DA84238D14FF2FF752A4078
:102E3000CD894FF6FF7606EA05252A434FF6FF3582
:102E40002A408D8806EA05252A4319E00000014042
:102E50000004004000080040000C0040001000404A
:102E600000140040000401400040014000440140C3
:102E70000048014000180040001C004000200040B5
:102E80004EF6FF752B404DF6FF752B400D8A06EA76
:102E900005152B434D8A06EA05152B438380848351
:102EA0008D68C563028470BD70B5002200230024C4
:102EB000058C4EF6FF7635400584038C8488828B22
:102EC00048F6FF752A404FF6FF452A400D884FF619
:102ED000FF7606EA05252A434DF6FF752B408D89BE
:102EE00006EA05352B434D8806EA05352B43FE4D92
:102EF000A84202D0FD4DA84208D14BF6FF752C40E8
:102F00000D8A4FF6FF7606EA85152C43848082836E
:102F10008D680564038470BD00210180418081803B
:102F200081608181C18101824182704770B5034611
:102F3000002000241846183001258D40ACB21D8CAD
:102F4000A5431D8409B108290AD100EB6100056879
:102F50004FF68F76354005600568154305600FE034
:102F60000D1FC5F34E052844056848F6FF76354029
:102F7000056005684FF6FF7606EA022635430560D0
:102F800070BD4163704781637047C16370470164DE
:102F900070470A460021018B4FF68F731940114389
:102FA000018370470A460021018B48F6FF731940E0
:102FB0004FF6FF7303EA02231943018370470A4661
:102FC0000021818B4FF68F73194011438183704725
:102FD0000A460021818B48F6FF7319404FF6FF73B4
:102FE00003EA02231943818370470A460021018BBB
:102FF0004FF6F77319401143018370470A460021C9
:10300000018B4FF2FF7319404FF6FF7303EA02235F
:103010001943018370470A460021818B4FF6F773ED
:1030200019401143818370470A460021818B4FF27A
:10303000FF7319404FF6FF7303EA0223194381839C
:1030400070470A460021018B4FF6FB73194011436C
:10305000018370470A460021018B4FF6FF33194068
:103060004FF6FF7303EA02231943018370470A46B0
:103070000021818B4FF6FB73194011438183704708
:103080000A460021818B4FF6FF3319404FF6FF733C
:1030900003EA02231943818370470A460021018B0A
:1030A0004FF67F7319401143018370470A46002190
:1030B000018BC1F30E014FF6FF7303EA022319439C
:1030C000018370470A460021818B4FF67F731940B8
:1030D0001143818370470A460021818BC1F30E01A1
:1030E0004FF6FF7303EA02231943818370470A46B0
:1030F0000021018C4FF6FD73194011430184704784
:103100000A460021018C4FF6F773194011430184E0
:1031100070470A460021018C4FF6DF7319404FF6C5
:10312000FF7303EA02131943018470470A46002122
:10313000018C4FF67F7319404FF6FF7303EA0213B9
:103140001943018470470A460021018C4FF6FF5352
:1031500019404FF6FF7303EA0223194301847047B5
:103160000A460021018C4FF2FF7319404FF6FF739E
:1031700003EA02231943018470470A460021018CA7
:103180004DF6FF7319404FF6FF7303EA02331943FC
:103190000184704730B5002301248C40A3B2048C15
:1031A0009C430484048C02FA01F5ADB22C430484E0
:1031B00030BD30B5002304248C40A3B2048C9C4362
:1031C0000484048C02FA01F5ADB22C43048430BDB2
:1031D000828B4FF2FF331A408283828B4FF6FF734C
:1031E00003EA01231A4382837047F0B50C46154663
:1031F000002100220026078C4EF6FF7C07EA0C0710
:103200000784818B028C4FF6FF7707EA043640F67D
:10321000FF4739404FF6FF7707EA052739434FF656
:10322000FF7707EA0337394345F6FF773A4046F41C
:1032300080573A4381830284F0BD828B4FF6F3734B
:103240001A408283828B0A4382837047F0B50C4612
:103250001546002100220026078C4FF6FF6C07EA76
:103260000C070784818B028C4FF6FF7707EA042650
:103270004FF60C7739404FF6FF7707EA03172F43D5
:1032800039434FF2FF573A4046F480773A438183FF
:103290000284F0BD028B4FF2FF331A400283028B8F
:1032A0004FF6FF7303EA01231A4302837047F0B518
:1032B0000C461546002100220026078C4FF6EF7CB5
:1032C00007EA0C070784018B028C4FF6FF7707EAA9
:1032D000041640F6FF4739404FF6FF7707EA0337F9
:1032E00039434FF6FF7703E000000140000401403E
:1032F00007EA052739434FF65F773A4046F0100753
:103300003A4301830284F0BD028B4FF6F3731A40F7
:103310000283028B0A4302837047F0B50C461546C0
:1033200000210022068C4FF6FE773E400684018B7A
:10333000028C4FF60C7631407E1C06EA03162E43B3
:1033400031434FF6F576324044F0010632430183B3
:103350000284F0BD70B505460C46208850B923891B
:10336000A28861882846FFF7D8FFE1882846FFF742
:10337000CBFF25E0208804280AD12389A288618810
:103380002846FFF794FFE1882846FFF783FF17E000
:10339000208808280AD12389A28861882846FFF757
:1033A00055FFE1882846FFF748FF09E02389A288F6
:1033B00061882846FFF719FFE1882846FFF708FFD4
:1033C00070BD002101804180012181800021C180E8
:1033D000018170472DE9F04105460C460026012782
:1033E000608808B9022600E00026A088012801D1E3
:1033F000022700E001272088A0B92389A2886188DC
:103400002846FFF78AFFE1882846FFF77DFF2389DA
:103410003A4631462846FFF74AFFE1882846FFF73B
:1034200039FF13E02389A28861882846FFF73FFF10
:10343000E1882846FFF72EFF23893A463146284681
:10344000FFF76BFFE1882846FFF75EFFBDE8F081DC
:103450000146486B70470146886B70470146C86B50
:1034600070470146086C70470A884B881A438B885E
:103470001A43CB881A430B891A434B891A438B8909
:103480001A43A0F8442070470021018041808180C8
:10349000C180018141818181704731B1B0F8442000
:1034A00042F40042A0F8442005E0B0F84420C2F302
:1034B0000E02A0F84420704721B1828842F0040235
:1034C000828004E082884FF6FB731A408280704746
:1034D00021B1828842F00102828004E082884FF6A6
:1034E000FE731A40828070471AB183890B4383812F
:1034F00002E083898B438381704781827047024653
:103500000020138A0B400BB1012000E0002070471F
:10351000CA430282704730B50246002000230024CF
:10352000158A05EA0103958905EA010413B10CB176
:10353000012000E0002030BDCA430282704741EA0A
:103540000203A0F8483070471AB183890B43838186
:1035500002E083898B438381704721B1828842F0E6
:103560000802828004E082884FF6F7731A40828056
:10357000704701894FF6F8721140018170470A4681
:10358000002101894FF68F73194011430181704763
:1035900030B504460D4629462046FFF7F0FF208946
:1035A00040F00700208130BD2DE9F04104460D4672
:1035B00016461F46602D06D13B4601223146204665
:1035C000FFF775FE05E03B46012231462046FFF736
:1035D000A4FE29462046FFF7D2FF208940F00700CD
:1035E0002081BDE8F08130B50C4600210189C9B2C7
:1035F0004FF6FF7505EA032515432543294301814D
:1036000030BD2DE9F04105460E4617469846002488
:1036100043463A4631462846FFF7E5FF2C894FF6E8
:10362000F870044044F007044FF68F70044044F0F3
:1036300070042C81BDE8F081F0B504460D461646B5
:103640001F463B46324629462046FFF7CCFF2089DD
:1036500040F480402081F0BD82884FF68F731A407D
:10366000828082880A438280704702894FF6F8730D
:103670001A40028102890A430281704702894FF68B
:103680007F731A40028102890A4302817047F0B5B4
:103690000C4615461E460021002200230189028B9C
:1036A000038C4FF6F877394021434FF6FC473A40F8
:1036B00040F201173A434FF6DD773B404FF6FF7774
:1036C00007EA06172F433B43018102830384F0BDC1
:1036D00021B1828842F08002828004E082884FF625
:1036E0007F731A4082807047A0F850107047000026
:1036F00010B50446FA48844208D101211020FFF792
:10370000B5F800211020FFF7B1F857E0F5488442E2
:1037100009D101214804FFF798F800214FF4003047
:10372000FFF793F84AE0F048844209D10121880468
:10373000FFF78BF800214FF48020FFF786F83DE07B
:10374000EA48844209D10121C804FFF77EF800212C
:103750004FF40020FFF779F830E0E548844209D1C2
:1037600001210805FFF771F800214FF48010FFF7E1
:103770006CF823E0DF48844208D101212020FFF7C4
:1037800075F800212020FFF771F817E0DA4884422D
:1037900009D101218807FFF758F800214FF0804038
:1037A000FFF753F80AE0D548844207D101214005CC
:1037B000FFF74BF800216005FFF747F810BD2DE932
:1037C000FF4705460E460024A14600BFA046B0892B
:1037D00000B100BF2C8A24F44054F08804432C82AA
:1037E000AC8941F20C608443B08831890843718907
:1037F00008430443AC81AC8A24F44074B089044388
:10380000AC826846FEF7B4FEB548854202D0B9489E
:10381000854202D1DDF80C9001E0DDF80890A8891E
:1038200000F4004040B109EBC90000EB0910316819
:103830004900B0FBF1F707E009EBC90000EB091004
:1038400031688900B0FBF1F76420B7FBF0F00401A8
:103850002009642101FB1078A88900F4004040B1E0
:10386000322000EBC800B0FBF1F000F00700044389
:1038700008E0322000EB08106421B0FBF1F000F00A
:103880000F0004432C81BDE8FF874FF416510160FF
:1038900000218180C18001810C2141810021818131
:1038A000704710B502460020108A20F470600B8823
:1038B0004C8823438C882343CC88234318431082AD
:1038C00010BD0021018041808180C180704721B1FD
:1038D000828942F40052828104E082894DF6FF73AE
:1038E0001A4082817047028B02F47F420283028B6E
:1038F0000A430283704721B1828942F400428281E7
:1039000003E08289C2F30E028281704721B1828A6C
:1039100042F40062828204E0828A4FF2FF731A400E
:1039200082827047C1F3080282807047014688880E
:10393000C0F308007047028A4FF6F0731A40028203
:10394000028A0A430282704721B1828942F0020250
:10395000828104E082894FF6FD731A4082817047AC
:1039600082894FF2FF731A40828182890A438281E1
:103970007047028A4FF6DF731A400282028A0A43B6
:103980000282704721B1028A42F48042028204E03E
:10399000028A4BF6FF731A4002827047818941F018
:1039A00001018181704721B1828A42F0080282823E
:1039B00004E0828A4FF6F7731A4082827047028BC6
:1039C000D2B20283028B42EA01220283704721B104
:1039D000828A42F02002828204E0828A4FF6DF73FC
:1039E0001A408282704721B1828A42F0100282829C
:1039F00004E0828A4FF6EF731A4082827047828A0F
:103A00004FF6FB731A408282828A0A438282704791
:103A100021B1828A42F00202828204E0828A4FF659
:103A2000FD731A40828270471AB1838A0B438382E6
:103A300002E0838A8B4383827047F0B503460024FB
:103A400000260025002040F66A17B94200D100BFC9
:103A50001846C1F3421401F01F06012707FA06F5C4
:103A6000012C01D10C3004E0022C01D1103000E017
:103A700014301AB107682F43076002E00768AF43AC
:103A80000760F0BD02460020B1F5007F00D100BF05
:103A900013880B400BB1012000E00020704701F4B7
:103AA0000072B2F5007F00D100BFCA4302807047A8
:103AB00070B50246002400230025002040F66A1657
:103AC000B14200D100BFC1F3421501F01F0301262E
:103AD00006FA03F3012D13D19689334017E0000055
:103AE000001001400044004000480040004C0040ED
:103AF000005000400014014000780040007C00406D
:103B0000022D02D1168A334001E0968A33400C120E
:103B1000012606FA04F41688344013B10CB10120D2
:103B200000E0002070BD10B50022002340F66A14AA
:103B3000A14200D100BF0A1201249440A3B2DC4389
:103B4000048010BD10B504466FF00400FDF722FF9D
:103B5000E11704EB5171C1F3C701394A11701046E6
:103B6000007800EB4001C1EBC0104FF6FF7101EA95
:103B7000C0003449088010BD0146314A12784A43DA
:103B80004FF0E0235A6100229A611A46126942F00E
:103B900001021A6100BF4FF0E022106900F001023B
:103BA0001AB100F48032002AF5D04FF0E0221269F9
:103BB00022F001024FF0E0231A6100229A6170475F
:103BC0000146204A12884A434FF0E0235A610022FE
:103BD0009A611A46126942F001021A6100BF4FF061
:103BE000E022106900F001021AB100F48032002ACC
:103BF000F5D04FF0E022126922F001024FF0E023ED
:103C00001A6100229A61704770B504464FF407703C
:103C100094FBF0F0C6B24FF4077094FBF0F100FB98
:103C2000114085B205E04FF40770FFF7C9FF701E21
:103C3000C6B2002EF7D115B12846FFF7C1FF70BDFF
:103C40006C0000206E00002000BF704700BFFE4ADD
:103C5000128802F04002002AF9D0C2B2FA4B9A80D0
:103C6000704710B588B0044601212120FEF751FDB0
:103C700001211020FEF7A5FD07220921F348FEF7D8
:103C800072FA07220A21F148FEF76DFA4FF4C0607C
:103C9000069002208DF81C008DF81D0000208DF884
:103CA0001E0001208DF81F0006A9E848FEF7D0F994
:103CB0004020069001208DF81C0000208DF81E0089
:103CC00003208DF81D0001208DF81F0006A9E04893
:103CD000FEF7BEF98020069000208DF81C0003201E
:103CE0008DF81D0001208DF81F0006A9D848FEF7A9
:103CF000AFF902940020ADF80C00ADF80E00ADF85D
:103D00001000ADF814000C20ADF8120002A9CE4846
:103D1000FFF755FD0121CC48FFF7D9FD012240F204
:103D20002551C948FFF789FE25208DF8040003209E
:103D30008DF805008DF8060001208DF8070001A818
:103D4000FDF7DBFD08B010BD10B540F22551BE48AF
:103D5000FFF7AEFE10B3BC48FFF7E8FDC4B2BD48A4
:103D6000008800F40040C8B9BA48008800F48040D8
:103D700060B10A2C03D00020B649088020E0B54885
:103D8000008840F40040B349088019E00D2C06D1AA
:103D9000B048008840F48040AE49088010E0AD484B
:103DA0000088C0F30D00AC490C54AA480088401CA0
:103DB000A849088008460088C72801DD002008803F
:103DC00010BD10B588B0044601210420FEF7A1FC07
:103DD00001212020FEF7F5FC082206219F48FEF76E
:103DE000C2F9082207219D48FEF7BDF9C0200690C0
:103DF00002208DF81C008DF81D0000208DF81E009B
:103E000001208DF81F0006A99448FEF721F90294BD
:103E10000020ADF80C00ADF80E00ADF81000ADF8C4
:103E200014000C20ADF8120002A98D48FFF7C7FC62
:103E300001218B48FFF74BFD012240F225518848B4
:103E4000FFF7FBFD47208DF8040003208DF80500E7
:103E50008DF8060001208DF8070001A8FDF74DFD43
:103E600008B010BD10B540F225517D48FFF720FE87
:103E700010B37B48FFF75AFDC4B27648008800F4BF
:103E80000040C8B97348008800F4804060B10A2C33
:103E900003D000206F49088020E06E48008840F47D
:103EA00000406C49088019E00D2C06D16948008853
:103EB00040F480406749088010E066480088C0F3FD
:103EC0000D0065490C5463480088401C6149088016
:103ED00008460088C72801DD0020088010BD0FB407
:103EE00038B505A800905F48009A049905F0FCFFDA
:103EF000002000905B4806F0F5F985B200240DE043
:103F000000BF40215648FFF7BDFD0028F9D05548B5
:103F1000015D5348FFF706FD601C84B2AC42EFDB45
:103F200038BC5DF814FB10B5044600BF40214C4876
:103F3000FFF7A8FD0028F9D021464948FFF7F2FC19
:103F400010BD10B588B0044601210920FEF7E1FB41
:103F500001214804FEF724FC072202213B48FEF71A
:103F600002F9072203213948FEF7FDF80C200690DC
:103F700002208DF81C0003208DF81D0000208DF814
:103F80001E0001208DF81F0006A93048FEF760F8DA
:103F90004FF48040069001208DF81C0003208DF81E
:103FA0001D0000208DF81E0001208DF81F0006A9BD
:103FB0002D48FEF74DF802940020ADF80C00ADF846
:103FC0000E00ADF81000ADF814000C20ADF8120092
:103FD00002A92648FFF7F3FB01212448FFF777FCED
:103FE000012240F225512148FFF727FD26208DF8B8
:103FF000040003208DF805008DF8060001208DF8DF
:10400000070001A8FDF779FC4FF480411648FEF740
:104010009DF808B010BD1CB54FF480400090012001
:104020008DF8040003208DF8050000208DF80600AF
:1040300001208DF8070069460B48FEF709F84FF498
:104040008041094814E000000010014000000240D7
:104050000014024078000020180E002000080240E2
:1040600000140140E00E0020000C0240004400401B
:10407000FEF76CF81CBD00001CB501210820FEF7FE
:1040800048FB4FF40050009001208DF80400002000
:104090008DF8060003208DF8050001208DF807003B
:1040A00069467948FDF7D4FF4FF400517648FEF792
:1040B0004BF81CBD1CB501210420FEF72AFB102083
:1040C000009001208DF8040000208DF806000320E8
:1040D0008DF8050002208DF8070069466B48FDF752
:1040E000B7FF10216948FEF731F81CBD1CB501214E
:1040F0003920FEF70EFB012000908DF8070000200C
:104100008DF8040003208DF8050069466048FDF72E
:104110009FFF48F20300009069465B48FDF798FF57
:104120008020009069465B48FDF792FF0E200090CA
:1041300069465948FDF78CFF1CBD10B5044614B103
:1041400001205649087055480078002868D00121A0
:104150004D48FDF7DFFF20B34FF400414A48FDF71B
:10416000D9FFF0B180214B48FDF7D4FFC8B102213F
:104170004548FDF7CFFFA0B104214748FDF7CAFF2E
:1041800078B102214448FDF7C5FF50B108214248EB
:10419000FDF7C0FF28B101213D48FDF7BBFF002816
:1041A0003ED10A20FFF730FD00203C490870012174
:1041B0003548FDF7AFFF08B9012010BD4FF40041AD
:1041C0003148FDF7A7FF08B90220F6E78021314802
:1041D000FDF7A0FF08B90320EFE702212A48FDF709
:1041E00099FF08B90420E8E704212B48FDF792FF66
:1041F00008B90520E1E702212748FDF78BFF08B940
:104200000620DAE708212448FDF784FF08B90720D3
:10421000D3E701211E48FDF77DFF98BB0820CCE7BE
:1042200001211948FDF776FF01282BD1C10316485B
:10423000FDF770FF012825D180211648FDF76AFFA0
:1042400001281FD102211048FDF764FF012819D170
:1042500004211148FDF75EFF012813D102210E4809
:10426000FDF758FF01280DD108210B48FDF752FF3B
:10427000012807D101210648FDF74CFF012801D193
:1042800006490870002098E7000C02400008024030
:104290000000024000100240001402407A0000209A
:1042A00010B500246048006820F440605E49086052
:1042B00008460068086004E0601CC4B20120FFF7F3
:1042C0005BFC5A48006808B1642CF5DB642C01DB08
:1042D000012010BD002404E0601CC4B20120FFF7DF
:1042E0004BFC5248006808B9642CF5DB642C01DBF8
:1042F0000120EEE70020ECE710B54B48006820F401
:104300004060494908600846006840F480600860E1
:1043100000204649803108601420FFF775FC012019
:104320004349C1F894021E20FFF726FC10BD1CB5BE
:1043300001210420FEF7EDF92020009001208DF8E6
:10434000040000208DF8060002208DF805000120F1
:104350008DF8070069463448FDF77AFEFFF7CCFF79
:10436000FFF79EFF1CBD10B500210420FEF7D1F918
:1043700010BD10B5002404E0601CC4B20120FFF79A
:10438000FBFB2A48006808B1642CF5DB002404E03C
:10439000601CC4B20120FFF7EFFB2448006808B995
:1043A000642CF5DB2820FFF7E7FB2048006808B104
:1043B000012010BD0020FCE770B50024002506E0B8
:1043C0006006040EFFF7D5FF0443681CC5B2082D34
:1043D000F6DB204670BD2DE9FC4105460E4617462A
:1043E000FFF78AFFFFF75CFFC0B9002405E0FFF785
:1043F000E3FF0DF80400601CC4B2052CF7DB9DF848
:1044000001009DF8001040EA012030609DF8030093
:104410009DF8021040EA0120286002E00120BDE87A
:10442000FC810020FBE7000000080240140241422A
:10443000000041427FB505460C4601210846FEF7C3
:10444000AFF90295ADF804400020ADF80600ADF8D4
:104450000C0001A94FF08040FEF7A5FB0122114698
:104460009007FFF741F800214FF08040FEF724FC51
:104470001C208DF8000001208DF8010003208DF82C
:10448000020001208DF803006846FDF736FA7FBD73
:1044900010B501218807FFF73EF8012820D101213E
:1044A0008007FFF749F80120334908700021800791
:1044B000FEF702FC00214FF08040FEF7BDFB01201B
:1044C0002E4908702E4800782E4908702E48007832
:1044D00030B12B480078042802DD01202B490870F8
:1044E00010BD7FB504460D4601210420FEF758F9A2
:1044F000ADF804500020ADF806000294ADF80C00B1
:1045000001A92348FEF74FFB012211462048FEF780
:10451000EBFF01211E48FEF7CFFB1E208DF80000A7
:1045200002208DF8010003208DF8020001208DF893
:1045300003006846FDF7E1F97FBD10B5012114487D
:10454000FEF7E9FF012816D112480068401C114906
:10455000086001210E48FEF7EFFF0E48006864284E
:1045600009D101200C49086000200A490860002197
:104570000748FEF7A1FB10BD690D00206A0D002061
:10458000700D002058BA0120680D00206D0D00202C
:10459000000800407C0000204400002010B500F01E
:1045A0008BF810BD70B506460C46154600F0A3F812
:1045B000304600F04EF900F0DFF8204600F049F9EF
:1045C00000F0DAF8284600F044F900F0D5F800F0E1
:1045D000B4F870BD10B500214020FEF79AF810BD68
:1045E00070B504460D46002600F085F8204600F020
:1045F00030F900F0C1F8284600F02BF900F0BCF8C3
:1046000000F079F8611CC8B200F023F900F0B4F8AA
:104610000120FFF7F9FA002000F048F9064600F003
:104620008CF8304670BD2DE9F0412DED028B04462B
:104630000E461746E0B23A463146FFF7B3FF012077
:10464000FFF7E2FA1420FFF7DFFAE0B20221FFF7EA
:10465000C7FF05462D02E0B20321FFF7C1FF054465
:10466000284609F037FC41EC180BB0EE480AF0EE92
:10467000680ABDEC028BBDE8F08170B506460D46B8
:104680002A4602213046FFF78DFF0120FFF7BCFAD2
:104690005020FFF7B9FA02213046FFF7A1FF044688
:1046A000240203213046FFF79BFF04440520FFF757
:1046B000ABFA204670BD00001CB501214020FEF77A
:1046C00028F84FF4C040009001208DF8040000202D
:1046D0008DF8060003208DF8050001208DF80700F5
:1046E00069468A48FDF7B4FC012089490860894978
:1046F000C1F8B4021CBD10B58448006820F04060C9
:10470000824908600846006840F080600860012027
:104710007F49091F08607F49C1F8B8023220FFF7BE
:104720002BFA00207A49091F08603220FFF724FA8B
:1047300000207849C1F8B80210BD10B57348006870
:1047400020F04060714908600846006840F08060D1
:10475000086000206E4908606E49C1F8B40232203A
:10476000FFF70AFA01206A4908606A49C1F8B402F1
:104770003220FFF701FA10BD10B50024634800682D
:1047800020F0406061490860084600680860012028
:104790005F49091F08603220FFF7EEF901205D49EB
:1047A000C1F8B8023220FFF7E7F907E0601CC4B295
:1047B000FA2C03DDFFF7C1FF012010BD54488438F7
:1047C00000680028F2D15249086000BFF5E710B533
:1047D00000204F4908604D48006820F040604B4978
:1047E00008600846006840F0806008600020494981
:1047F000C1F8B4020220FFF7BFF901204449086064
:104800000220FFF7B9F900204249C1F8B80210BDF3
:1048100010B500203E4908603C48006820F0406028
:104820003A4908600846006840F08060086001204E
:104830003849C1F8B4023220FFF79EF9012034490B
:1048400008603220FFF798F900203249C1F8B80219
:1048500010BD70B504462D48006820F040602B491B
:1048600008600846006840F0806008600020284921
:104870000860002517E0E0092549091F0860600667
:10488000040E3220FFF778F901202249C1F8B8025E
:104890003220FFF771F900201D4908603220FFF730
:1048A0006BF9681CC5B2082DE5DB70BD70B5054617
:1048B00000241648006820F040601449086008464B
:1048C00000680860002616E00020114908603220C8
:1048D000FFF752F901200F49C1F8B8026006040E33
:1048E0000B488438006808B1601CC4B23220FFF75E
:1048F00043F9701CC6B2082EE6DB15B9FFF788FF36
:1049000001E0FFF764FF204670BD00000018024080
:10491000B80243420000434210B5044600F0D0F80C
:10492000462000F079F900F00CF9204600F074F907
:1049300000F007F900F0E6F810BD10B50446012CB0
:1049400006D11020FFF7E8FF01204A49087010E067
:10495000022C06D11120FFF7DFFF02204549087025
:1049600007E0032C05D11320FFF7D6FF03204149B0
:10497000087010BD10B504461F2C01DC1F2402E096
:10498000FE2C00DBFE243C480470014609784022DE
:1049900002EB6110FFF7C0FF3749097801F01F01F2
:1049A00001F16000FFF7B8FF32480078FFF7C5FF5C
:1049B00010BD10B500F066F80120FFF7ADFF022032
:1049C000FFF7BBFF4520FFF7D5FF10BD10B5002155
:1049D0002020FDF79EFE10BD10B5002400F070F8F9
:1049E000472000F019F900F0ACF8012000F041F97F
:1049F0000446002000F03DF900EB042400F082F8AA
:104A0000204610BD10B52DED068B00BF00BFB420B1
:104A1000FFF7FAF8FFF7E0FF04461749097801EBC2
:104A20004101480009F03FFA41EC190B04EB840105
:104A300001EB810202EB811009F04CFA53EC192BC7
:104A400009F06EF841EC180B0A480078022809D1E9
:104A50009FED0A0B53EC102B51EC180B09F060F88A
:104A600041EC180BB0EE480AF0EE680ABDEC068B7C
:104A700010BD000081000020800000200000000028
:104A8000000000401CB501212020FDF742FEC0209F
:104A9000009001208DF8040000208DF8060003200E
:104AA0008DF8050001208DF8070069468848FDF75C
:104AB000CFFA0120874908608749C1F89C021CBDD4
:104AC00010B58348006820F44040814908600846DA
:104AD000006840F48040086001207E49091D08609C
:104AE0007D49C1F898020420FFF746F80020794973
:104AF000091D08600420FFF73FF800207649C1F83F
:104B0000980210BD10B57248006820F4404070490A
:104B100008600846006840F48040086000206D4945
:104B200008606D49C1F89C020420FFF725F80120B8
:104B3000684908606849C1F89C020420FFF71CF826
:104B400010BD10B500246248006820F44040604960
:104B5000086008460068086001205E49091D086079
:104B6000FFF70AF801205C49C1F89802FFF704F842
:104B700007E0601CC4B2FA2C03DDFFF7C3FF01207D
:104B800010BD54487C3800680028F2D151490860B3
:104B900000BFF5E710B500204E4908604C4800689A
:104BA00020F440404A4908600846006840F48040CC
:104BB000086000204849C1F89C020220FEF7DCFF93
:104BC0000120444908600220FEF7D6FF0020424938
:104BD000C1F8980210BD10B500203E4908603C485D
:104BE000006820F440403A4908600846006840F4F4
:104BF0008040086001203849C1F89C020220FEF77D
:104C0000BBFF0120334908600220FEF7B5FF0020FA
:104C10003149C1F8980210BD70B504462C480068AF
:104C200020F440402A4908600846006840F480406B
:104C30000860002027490860002517E0E0092549A1
:104C4000091D08606006040E0220FEF795FF012092
:104C50002149C1F898020220FEF78EFF00201D496D
:104C600008600220FEF788FF681CC5B2082DE5DB4E
:104C700070BD70B5054600241548006820F440401A
:104C800013490860084600680860002616E0002006
:104C9000104908600220FEF76FFF01200E49C1F89D
:104CA00098026006040E0B487C38006808B1601C4E
:104CB000C4B20120FEF760FF701CC6B2082EE6DB0E
:104CC00015B9FFF788FF01E0FFF764FF204670BDCC
:104CD00000140240988242420080424270B503466E
:104CE0000C4603E014F8015B03F8015B151EA2F10A
:104CF0000102F7D170BD30B5034601E003F8011B96
:104D0000141EA2F10102F9D130BD10B504467A4952
:104D100051F824104A00794951F824000021FFF786
:104D2000EAFF774951F8242074490C3951F82400DE
:104D30000021FFF7E0FF012170480C30015510BD44
:104D400010B501460023002207E06C4850F821000E
:104D500030F8120000B15B1C521C674850F821006B
:104D60009042F2D864205843634C54F82140B0FB81
:104D7000F4F0C0B210BD2DE9F04704460F460025FF
:104D8000A9465E480C30005D20B95C4814380168C3
:104D9000204688471FB94FF0FF30BDE8F0875948DB
:104DA00050F82400B7FBF0F6564850F82400B7FB43
:104DB000F0F100FB117000B1761C4F4850F8240050
:104DC000451E20E04D4850F8240030F8150010B979
:104DD00009F1010901E04FF00009B14512D14FF08E
:104DE000000808E0454850F8240005EB080220F8C8
:104DF000126008F10108B045F4D3424850F824008D
:104E00006843CAE76D1E002DDCDA4FF0FF30C4E7BF
:104E10002DE9F04104460E4638480C30005D38B9A3
:104E2000364814380168204688470120BDE8F081E3
:104E3000334850F82400B04217D9324850F82400C3
:104E4000B6FBF0F12D4850F8240030F81120002571
:104E500007E00023294850F824004F1920F81730A4
:104E60006D1C9542F5DB0020E0E70220DEE770B51F
:104E700005460C4604B970BD20480C3850F8250092
:104E8000261A31462846FFF7C3FF00BFF3E770B587
:104E900004460E4631462046FFF76DFF0546681C66
:104EA00008B9002070BD15480C3850F8240028447B
:104EB000F8E72DE9F04104460F46164631462046F4
:104EC000FFF759FF0546681C10B90020BDE8F081C6
:104ED0000A490C3951F82410481932463946FFF76F
:104EE000FDFE39462046FFF7C2FF04480C3850F853
:104EF00024002844EAE700005CE70008980000204E
:104F000074E7000868E7000870B504460E4626B14D
:104F10001021FE48FDF718F903E01021FB48FDF7CA
:104F200015F94FF40051FA48FDF710F9002517E084
:104F30000221F748FDF70AF904F0800020B10121B1
:104F4000F348FDF701F903E00121F148FDF7FEF810
:104F50000221EF48FDF7F8F86006040E681CC5B2A0
:104F6000082DE5DB4FF40051E948FDF7EDF810217D
:104F7000E648FDF7E9F870BD70B504460D4605F149
:104F8000B001C8B20021FFF7BFFF102141EA1410A1
:104F90000021FFF7B9FF04F00F0141F001000021EB
:104FA000FFF7B2FF70BD10B500218D20FFF7ACFFF9
:104FB00000211420FFF7A8FF0021AF20FFF7A4FF76
:104FC00010BD10B500218D20FFF79EFF002110209D
:104FD000FFF79AFF0021AE20FFF796FF10BD70B5D6
:104FE000002419E004F1B001C8B20021FFF78CFFE2
:104FF00000210220FFF788FF00211020FFF784FF27
:10500000002505E001210020FFF77EFF681CC5B2E6
:10501000802DF7DB601CC4B2082CE3DB70BD2DE9EA
:10502000F04107460E46904600250024A8F12000D6
:10503000C5B27F2F02DD0027B01CC6B2314638460C
:10504000FFF79AFF002408E004EB0511B14A505C19
:105050000121FFF759FF601CC4B2082CF4DB701C5F
:10506000C1B23846FFF788FF002409E004EB0511C0
:105070000831A84A505C0121FFF746FF601CC4B20A
:10508000082CF3DBBDE8F08110B50246012000E0FA
:1050900050430B1EA1F10104E1B2F9D110BD2DE97D
:1050A000FF5F074691461D460E9E4FF0000A002402
:1050B00033E0281B401EC1B20A20FFF7E5FFB9FB11
:1050C000F0F00A21B0FBF1F201FB1208BAF1000F77
:1050D00013D1681EA04210DDB8F1000F0BD1B3460A
:1050E00006EBDB71491001FB0471C8B22022019963
:1050F000FFF795FF0FE04FF0010AB34606EBDB71B7
:10510000491001FB0471C8B208F13001CAB201991B
:10511000FFF785FF00BF601CC4B2AC42C9DBBDE82D
:10512000FF9F2DE9F04104460F46154600260EE08C
:10513000AA5D39462046FFF772FF04F10800C4B2A9
:10514000782C02DD0024B81CC7B2701CC6B2A85D62
:105150000028EDD1BDE8F0812DE9F04180460E46F2
:105160001546002731464046FFF706FF00240AE0B7
:10517000694A02EB8511085D0121FFF7C5FE781C25
:10518000C7B2601CC4B2102CF2DB701CC1B2404626
:10519000FFF7F2FE00240CE06900491C5E4A02EBB6
:1051A0004111085D0121FFF7AFFE781CC7B2601CFA
:1051B000C4B2102CF0DBBDE8F0812DE9F05F0646AB
:1051C0000F4690461C46DDF828A04FF0000BE11773
:1051D00004EB5171C910A4EBC10131B92046E117AC
:1051E00004EB5171C1F3C70506E02046E11704EB5B
:1051F0005171C910491CCDB23D4615E029463046D3
:10520000FFF7BAFEB1460BE059460BF1010B1AF855
:1052100001000121FFF778FE09F1010000F0FF090C
:10522000C145F1DB681CC5B2A542E7DBBDE8F09FD4
:105230001CB501212420FDF76CFA42F20300009016
:1052400001208DF8040000208DF8060002208DF862
:10525000050069462E48FCF7FBFE302000906946A9
:105260002A48FCF7F5FE42F203012948FCF76CFFDF
:1052700030212648FCF768FF20212448FCF764FF12
:105280006420FEF7C1FC20212048FCF75FFF64206A
:10529000FEF7BAFC20211D48FCF756FF0021AE2086
:1052A000FFF732FE00210220FFF72EFE0021102022
:1052B000FFF72AFE00214020FFF726FE0021812073
:1052C000FFF722FE0021CF20FFF71EFE0021A120C4
:1052D000FFF71AFE0021C820FFF716FE0021A620C6
:1052E000FFF712FE0021A820FFF70EFE00213F204D
:1052F000FFF70AFE0021D320FFF706FE0021084633
:10530000FFF702FE0021D52008E000000014024053
:1053100000080240A8E90008A8000020FFF7F4FDFB
:1053200000218020FFF7F0FD0021D920FFF7ECFDE0
:105330000021F120FFF7E8FD0021DA20FFF7E4FD6E
:1053400000211220FFF7E0FD0021DB20FFF7DCFD4C
:1053500000214020FFF7D8FD00212020FFF7D4FDD9
:1053600000210220FFF7D0FD00218D20FFF7CCFDAA
:1053700000211420FFF7C8FD0021A420FFF7C4FD81
:105380000021A620FFF7C0FD0021AF20FFF7BCFDE4
:105390000021AF20FFF7B8FDFFF721FE00210846EE
:1053A000FFF7EAFD1CBD00001CB54FF480600090C3
:1053B00001208DF8040000208DF806006946F848A9
:1053C000FCF746FE1CBD70B504460025FFF7ECFF58
:1053D0004FF40061F248FCF7B9FE00BF20E004F092
:1053E000010028B14FF48061ED48FCF7ADFE04E008
:1053F0004FF48061EA48FCF7A9FE0220FEF7BCFBEF
:105400004FF40061E648FCF79FFE0520FEF7B4FB71
:105410004FF40061E248FCF799FE6410681CC5B2C5
:10542000082DDCDB4FF48061DD48FCF78DFE70BD9C
:1054300070B504460D464FF48051D948FCF786FEFE
:105440004FF40061D648FCF781FE0120FEF794FB83
:105450004FF48051D248FCF777FE0220FEF78CFB18
:1054600044F08000FFF7AFFF2846FFF7ACFF4FF492
:105470000061CB48FCF768FE0120FEF77DFB4FF48E
:105480008051C748FCF762FE0120FEF775FB70BD36
:1054900010B580218E20FFF7CBFF10BD10B5002185
:1054A0008E20FFF7C5FF10BD10B500218020FFF74B
:1054B000BFFF10BD10B580210846FFF7B9FF10BD32
:1054C0001CB54FF48060009000208DF8040001208E
:1054D0008DF807006946B248FCF7BAFD1CBD1CB543
:1054E00001214020FDF715F94FF4006000900220E3
:1054F0008DF8050001208DF8040000208DF80600CD
:105500006946A748FCF7A4FD4FF40061A448FCF7E6
:105510001DFE4FF4805000906946A148FCF798FDAD
:105520004FF48060009069469D48FCF791FD1CBDDA
:1055300070B50024FFF7C4FF4FF400619848FCF7F2
:1055400005FE00251BE064104FF480619448FCF7D1
:10555000E1FD012801D144F080040520FEF70CFB99
:105560004FF400618E48FCF7EFFD0520FEF704FBC9
:105570004FF400618A48FCF7E9FD681CC5B2082DAC
:10558000E1DB204670BD70B504464FF4805184487D
:10559000FCF7DCFD4FF400618148FCF7D7FD0120EA
:1055A000FEF7EAFA4FF480517D48FCF7CDFD02206A
:1055B000FEF7E2FA44F08100FFF705FFFFF7B8FFBE
:1055C00005460120FEF7D8FA4FF400617448FCF755
:1055D000BBFD0120FEF7D0FA4FF480517048FCF774
:1055E000B5FD284670BD70B505464FF480516C4836
:1055F000FCF7ACFD4FF400616948FCF7A7FD012002
:10560000FEF7BAFA4FF480516548FCF79DFD022081
:10561000FEF7B2FABE20FFF7D6FE002404E0285DB4
:10562000FFF7D1FE601CC4B2082CF8DB0120FEF7A6
:10563000A3FA4FF400615A48FCF786FD0120FEF7FB
:105640009BFA4FF480515648FCF780FD70BD70B551
:1056500005464FF480515248FCF778FD4FF4006145
:105660004F48FCF773FD0120FEF786FA4FF4805196
:105670004B48FCF769FD0220FEF77EFABF20FFF7DA
:10568000A2FE002404E0FFF753FF2855601CC4B2BB
:10569000082CF8DB0120FEF76FFA4FF40061404858
:1056A000FCF752FD0120FEF767FA4FF480513C48A9
:1056B000FCF74CFD70BD30B5014600230846CC1701
:1056C00001EB14742411A1EB04140A46CD1701EB6D
:1056D00015752D1105EB850504EB4504E3B218465D
:1056E00030BD1CB504466846FFF7B1FF9DF80600C3
:1056F000FFF7E1FF20609DF80400FFF7DCFF207159
:105700009DF80300FFF7D7FF60719DF80200FFF7D7
:10571000D2FFA0719DF80100FFF7CDFFE0719DF869
:105720000000FFF7C8FF20729DF80500FFF7C3FFD8
:1057300060721CBD1CB5044600208DF8070020785F
:105740008DF80600607A8DF8050020798DF8040048
:1057500060798DF80300A0798DF80200E0798DF86A
:105760000100207A8DF800006846FFF73CFF1CBD61
:105770000EB50C4A07CA8DE807004FF4805108485F
:10578000FCF7E4FC4FF400610548FCF7DFFCFFF791
:1057900085FE6846FFF7CEFFFFF77AFE0EBD0000DC
:1057A0000018024098EF000810B504464FF48051ED
:1057B0001448FCF7CBFC4FF400611248FCF7C6FC20
:1057C000FFF76CFE2046FFF7B5FFFFF761FE10BD47
:1057D00010B5FFF784FEFFF7CBFF10BD1FB50446E1
:1057E000207AE179A2796379CDE90032CDE902101E
:1057F000237905A10E48226804F088FB0C4804B008
:1058000010BD000000180240323025302E32642FC7
:1058100025302E32642F25302E32642025302E3252
:10582000643A25302E32643A25302E32640000006E
:10583000E0B9012070B502460C46FF25FF2309E0C0
:1058400012F8010B80EA0301A148405C80EA0503DD
:10585000A048455C201EA4F10104F1D143EA0520D3
:1058600070BD2DE9F04104460D460026B0460120EA
:105870009949087003204870002088700846C47059
:10588000002008710846457106263146FFF7D2FF11
:10589000074691498F71380AC871B61CBDE8F0817E
:1058A00010B501208D49086000240DE000BF4021A3
:1058B0008B48FEF7E7F80028F9D08748015D884853
:1058C000FEF730F8601CC4B2082CEFDB00BF4021AB
:1058D0008348FEF7D7F80028F9D00320FEF794F9A3
:1058E00000207E49086010BD10B501207B4908608A
:1058F0007C4800687C490978405C7C49087000BF9E
:1059000040217748FEF7BEF80128F9D177480178A1
:105910007348FEF707F874480078401C7249087015
:105920007048006800780978884213DA00207049CE
:1059300008706C49096808706E49087001206A494E
:105940000870002240F226616548FEF776F80020D4
:105950006249086010BD10B50120674908706048B1
:10596000FDF7E4FF654908706148007801283CD0E4
:1059700000214FF08040FDF79FF900214FF080405B
:10598000FDF75AF95E48007860B15C48007801285C
:1059900008D100205B490870564908700846007815
:1059A000401C087056480078F8B956480078E0B9AD
:1059B0005048007864280CDA50480178524A4D4823
:1059C0000078401C11544B480078401C494908702D
:1059D0000BE001204B4908704549087045480078A4
:1059E0004949087000204349087000204449087064
:1059F00001218807FDF760F910BD37483949086073
:105A00004148424908600120334948703E49487086
:105A100035490870002036490870704710B540F2CB
:105A200025512F48FEF744F808B1FFF794FF40F2E4
:105A300026612B48FEF73CF808B1FFF755FF10BD73
:105A40002DE9F841074630480478042C05DC9FED29
:105A5000300A87ED000ABDE8F8812A48007801285D
:105A600034D129484078012824D1A11E2648401C61
:105A7000FFF7E0FE0546E8B28DF80100280A8DF830
:105A800000002148005D9DF80010884212D1601E80
:105A90001D49085C9DF8011088420BD11A484079D5
:105AA0001949097940EA012800EE108AB8EE400A47
:105AB00087ED000A002013490870002604E000204A
:105AC00011498855701CC6B2642EF8DB00BFC2E7CE
:105AD000A4EF0008A4F00008F4B90120B882414204
